:100000000C942F010C9460010C9460010C9460011D
:100010000C9460010C9460010C9460010C946001DC
:100020000C9460010C9460010C9460010C946001CC
:100030000C9460010C9460010C9460010C946001BC
:100040000C9460010C9460010C9460010C946001AC
:100050000C9460010C9460010C9460010C94C50434
:100060000C9460010C9460010C9460010C9460018C
:100070000C9460010C9460010C9460010C9460017C
:100080000C9460010C9460010C9460010C9460016C
:100090000C9460010C9460010C9460010C9460015C
:1000A0000C9460010C9460010C9460010C9460014C
:1000B0000C9460010C9460010C9460010C9460013C
:1000C0000C9460010C9460010C9460010C9460012C
:1000D0000C9460010C9460010C9460010C9460011C
:1000E0000C9460010C94A5010C9486010C94B7014A
:1000F0000C948E010C94A9010C949F010C94950111
:100100000C94ED020C94AD010C9492010C948A01B4
:100110000C94EC020C949B010C9496040C94BF027A
:100120000C943B080C94BB010C9480010C94C1010D
:100130000C94C5010C94C0010C94B3010000210083
:10014000240027002A002D003000330001010000A8
:10015000040107010A0100002200250028002B00ED
:100160002E003100340002010000050108010B01DE
:10017000000020002300260029002C002F00320060
:100180000001000003010601090105050505070539
:1001900008080808020202020A0A08080404040403
:1001A000010101010101010103030303030303032F
:1001B000040707070C0C0C0C0C0C0C0C02020202BE
:1001C00006060606060606060B0B0B0B0B0B0B0BA7
:1001D0000102102020080810204010204080020159
:1001E000020108040201010204081020408080403E
:1001F000201008040201800402018040201008043D
:1002000002010804020101020408102040800102DA
:1002100004081020408000000A0B02090C0D0E0893
:1002200007030401000000000000000000000000BF
:1002300000000000000000000000000000000000BE
:10024000000012111000000000000000000000007B
:100250000000000000000000000000003B08112426
:100260001FBECFEFD1E2DEBFCDBF00E00CBF12E07A
:10027000A0E0B2E0ECEEF5E100E00BBF02C00790B9
:100280000D92A63AB107D9F722E0A6EAB2E001C082
:100290001D92A13DB207E1F711E0CFE2D1E000E00D
:1002A00006C021970109802FFE010E94E50ACE3287
:1002B000D10780E00807A9F70E940F050C94F40A03
:1002C0000C9400008150823108F05AC0E82FF0E011
:1002D0008827E259FE4F8F4F0C94E50A8E01920158
:1002E000800186018A01C00195019B019F01A50142
:1002F000A901AD01B301B701C001BB01C101C50135
:10030000809180008F778093800008958091800095
:100310008F7DF9CF80918000877FF5CF84B58F776F
:1003200084BD089584B58F7DFBCF8091B0008F7719
:100330008093B00008958091B0008F7DF9CF8091B7
:1003400090008F77809390000895809190008F7D2A
:10035000F9CF80919000877FF5CF8091A0008F77B3
:100360008093A00008958091A0008F7DF9CF8091A7
:10037000A000877FF5CF809120018F7780932001A7
:100380000895809120018F7DF9CF80912001877F92
:10039000F5CFCF93DF93282F30E0F901EA5EFD4FD0
:1003A0008491F901E053FE4FD491F901E657FE4FD5
:1003B000C491CC23A1F081110E946201EC2FF0E0E6
:1003C000EE0FFF1FE059FE4FA591B491EC91ED2384
:1003D00081E090E009F480E0DF91CF91089580E022
:1003E00090E0FACF1F93CF93DF93282F30E0F901ED
:1003F000EA5EFD4F8491F901E053FE4FD491F9017B
:10040000E657FE4FC491CC23A9F0162F81110E940C
:100410006201EC2FF0E0EE0FFF1FEA5AFE4FA591AC
:10042000B4918FB7F894EC91111108C0D095DE23E8
:10043000DC938FBFDF91CF911F910895DE2BF8CF12
:10044000CF93DF9390E0FC01E053FE4F2491865759
:100450009E4FFC0184918823D1F090E0880F991F72
:10046000FC01E45CFE4FA591B491FC01EA5AFE4FF9
:10047000C591D491623071F49FB7F8943C91822F6A
:10048000809583238C93E8812E2B28839FBFDF9157
:10049000CF9108958FB7F894EC912E2B2C938FBFAA
:1004A000F6CF90917B00977F90937B00865380647A
:1004B00080937C0080917A00806480937A008091A0
:1004C0007A0086FDFCCF80917800909179000895A4
:1004D0003FB7F8948091B5029091B602A091B7020F
:1004E000B091B80226B5A89B05C02F3F19F0019620
:1004F000A11DB11D3FBFBA2FA92F982F8827BC017E
:10050000CD01620F711D811D911D42E0660F771FA5
:10051000881F991F4A95D1F708958F929F92AF92A5
:10052000BF92CF92DF92EF92FF924B015C010E944B
:1005300068026B017C010E9468026C197D098E09BA
:100540009F09683E734081059105A8F321E0821A56
:100550009108A108B10888EEC80E83E0D81EE11CFE
:10056000F11C81149104A104B10429F7FF90EF90CC
:10057000DF90CF90BF90AF909F908F900895AF92F3
:10058000BF92CF92DF92EF92FF920F931F93CF9380
:10059000DF936C017B018B01040F151FEB015E01E2
:1005A000AE18BF08C017D10759F06991D601ED9177
:1005B000FC910190F081E02DC6011995892B79F706
:1005C000C501DF91CF911F910F91FF90EF90DF90C8
:1005D000CF90BF90AF900895089590E080E0089587
:1005E000FC0101900020E9F73197AF01481B590B3E
:1005F000BC0189EB92E00C94BF028F929F92AF9264
:10060000BF920F931F93CF93DF93CDB7DEB7A19720
:100610000FB6F894DEBF0FBECDBF19A2423008F46A
:100620004AE08E010F5D1F4F842E912CB12CA12C1E
:10063000A50194010E947808E62FB901CA01EA30A9
:10064000F4F4E05DD801EE938D01232B242B252BB0
:1006500079F790E080E0109719F0CD010E94F00248
:10066000A1960FB6F894DEBF0FBECDBFDF91CF913C
:100670001F910F91BF90AF909F908F900895E95C6C
:10068000E1CF0C94F002CF93DF93EC0160E08E8118
:100690000E94F20161E08E810E94F20160E08E8191
:1006A0000E94F2018BE891E00197F1F7DF91CF9181
:1006B0000895CF92DF92EF92FF920F931F93CF9303
:1006C000DF936C017C0187E0E80EF11CD0E0C0E014
:1006D000062F10E0B8010C2E02C0759567950A949C
:1006E000E2F76170F70181917F010E94F20121968A
:1006F000C430D10579F7C601DF91CF911F910F91D9
:10070000FF90EF90DF90CF900C944303CF92DF9255
:10071000EF92FF920F931F93CF93DF93EC01F62E8E
:10072000642F8C810E94F2018D818F3F19F060E06F
:100730000E94F2010F2D10E08F8584FF25C06E010D
:1007400087E0C80ED11CF12CE12CB8010E2C02C0A0
:10075000759567950A94E2F76170F60181916F01D2
:100760000E94F201FFEFEF1AFF0A88E0E816F10499
:1007700061F7CE01DF91CF911F910F91FF90EF9024
:10078000DF90CF900C944303B80184E07595679592
:100790008A95E1F7CE010E9459036F2DCE01DF91BA
:1007A000CF911F910F91FF90EF90DF90CF900C941D
:1007B000590340E0682F89EB92E00C94860381E0B6
:1007C0000E94D9038BE39FE10197F1F70895CF933E
:1007D000DF93823029F49091C80298609093C80208
:1007E0008093CC021092CD0280E48093CE0280E10F
:1007F0008093CF0280E58093D00261E08091BD02BA
:100800000E9420028091BE028F3F19F061E00E9499
:10081000200261E08091BF020E942002C9EBD2E079
:100820009E01295B32408091C80284FD0BC084E0A8
:1008300090E021962817390744F461E08E810E94E8
:100840002002EECF88E090E0F4CF8BE39DE00197AB
:10085000F1F760E08091BD020E94F20160E08091BA
:10086000BF020E94F2018091BE028F3F19F060E04A
:100870000E94F2018091C80284FD34C063E089EBDC
:1008800092E00E945903CBE4D6E4CE010197F1F740
:1008900063E089EB92E00E9459032197F1F763E04E
:1008A00089EB92E00E94590383E592E00197F1F70A
:1008B00062E089EB92E00E9459038091C802806255
:1008C0000E94D90384E08093C9028CE00E94D9037E
:1008D0000E94DF0382E08093CA0286E0DF91CF911D
:1008E0000C94D90380620E94D9038BE496E40197AB
:1008F000F1F78091C80280620E94D90383E592E0FB
:100900000197F1F78091C80280620E94D903D5CF88
:100910009091CC02891710F08FEF890FE82FF0E04B
:10092000E754FD4F848980680C94D90341E00E940C
:10093000860381E090E00895CF92DF92EF92FF92DC
:100940006C01990FEE08FF08F7FE16C041E06DE25A
:1009500089EB92E00E94860366277727CB016C190A
:100960007D098E099F094AE00E94FD020196FF90D1
:10097000EF90DF90CF9008954AE0C701B601FF9055
:10098000EF90DF90CF900C94FD021F920F920FB664
:100990000F9211242F933F938F939F93AF93BF9305
:1009A0008091B1029091B202A091B302B091B402D1
:1009B0003091B00223E0230F2D3758F50196A11D89
:1009C000B11D2093B0028093B1029093B202A09324
:1009D000B302B093B4028091B5029091B602A09197
:1009E000B702B091B8020196A11DB11D8093B50266
:1009F0009093B602A093B702B093B802BF91AF91A3
:100A00009F918F913F912F910F900FBE0F901F904C
:100A1000189526E8230F0296A11DB11DD2CFCF93C2
:100A2000DF9300D01F92CDB7DEB7789484B5826093
:100A300084BD84B5816084BD85B5826085BD85B582
:100A4000816085BD80916E00816080936E00109200
:100A5000810080918100826080938100809181007B
:100A6000816080938100809180008160809380000C
:100A70008091B10084608093B1008091B00081606A
:100A80008093B0008091910082608093910080916A
:100A900091008160809391008091900081608093AB
:100AA00090008091A10082608093A1008091A100BC
:100AB00081608093A1008091A00081608093A0005C
:100AC00080912101826080932101809121018160C8
:100AD0008093210180912001816080932001809189
:100AE0007A00846080937A0080917A00826080939B
:100AF0007A0080917A00816080937A0080917A00F8
:100B0000806880937A001092C10082E00E94E7031F
:100B100062E083E00E94200262E082E00E94200204
:100B200062E084E00E94200261E08EE10E942002E7
:100B300061E08FE10E94200261E080E20E942002D9
:100B400061E081E20E94200261E082E20E942002D4
:100B500061E083E20E94200261E08CE10E942002B9
:100B600061E089E00E94200261E08AE00E942002A8
:100B700061E088E00E94200261E08BE00E94200298
:100B800061E08CE00E94200261E08DE00E94200282
:100B90008FB7F8944090B1025090B2026090B302C7
:100BA0007090B4028FBF88E30E9451029C838B83B4
:100BB00086E30E9451029A83898387E30E9451024F
:100BC0001C0184E00E94C9018C0182E00E94C901DD
:100BD0006C0183E00E94C9017C012B813C812B3098
:100BE00031050CF050C01092AF0260E089E00E9425
:100BF000F20160E08AE00E94F20160E088E00E9479
:100C0000F20160E08BE00E94F20160E08CE00E9463
:100C1000F20160E08DE00E94F20160E080E20E945B
:100C2000F20160E08EE10E94F20160E08FE10E943B
:100C3000F20160E081E20E94F20160E082E20E9443
:100C4000F20160E083E20E94F2010E94DF0380E093
:100C50000E9488048CE092E00E94410381E00E949F
:100C6000880489E192E00E94410366E970E080E037
:100C700090E00E948D0220E030E0232B09F488CF21
:100C80000E94000085CF24E630E0AB81BC810E9449
:100C9000ED0A2FEF33E040E050E00E94590849018F
:100CA0003C832B83263031050CF0DBC02FB7F89442
:100CB0008091B1029091B202A091B302B091B402BE
:100CC0002FBF4091AB025091AC026091AD02709188
:100CD000AE02841B950BA60BB70BC297A105B105FD
:100CE000E0F06091AA0281E068276093AA0280E2A6
:100CF0000E94F2012FB7F8948091B1029091B20254
:100D0000A091B302B091B4022FBF8093AB02909335
:100D1000AC02A093AD02B093AE020115110509F02B
:100D2000B4C0EF2809F0B1C0CD2809F4A6C01092D4
:100D3000AF0261E08EE10E94F20161E08CE10E946D
:100D4000F20164EF71E080E090E00E948D0260E0CB
:100D50008CE10E94F20129813A81B901330F880B9D
:100D6000990B0E94BE0920E030E040EA50E40E9466
:100D7000730A20E030EC4FE754E40E941B0920E0A6
:100D800030E048EC52E40E94730A6B017C0120E0E1
:100D900030E048EC51E40E946E0A18160CF078C05E
:100DA00061E08BE00E94F20160E08CE00E94F201C1
:100DB00061E08DE00E94F20161E03AE9231633E040
:100DC00033060CF060E08FE10E94F2018091AF02E7
:100DD000882309F467C061E089E00E94F20160E0C5
:100DE0008AE00E94F20161E088E00E94F2010115B0
:100DF000110509F461C061E081E20E94F20160E046
:100E000082E20E94F20161E083E20E94F20180919D
:100E1000A6029091A702A091A802B091A902A301F5
:100E20009201281B390B4A0B5B0BDA01C901863989
:100E30009105A105B10508F41ECF0E94DF03012B27
:100E400009F444C080E00E94880485E292E00E9498
:100E5000410381E00E94880487E392E00E944103FD
:100E600047C08B819C8161E00B970CF060E080E2D1
:100E70000E94F2011092AA0250CF81E08093AF024B
:100E800060E08EE10E94F20162CF1092AF0263CF68
:100E900060E08BE00E94F20160E08CE00E94F201D1
:100EA00060E087CF60E089E00E94F20160E08AE0C4
:100EB0000E94F20160E098CF60E081E20E94F201BE
:100EC00060E082E20E94F20160E09ECF4B815C8193
:100ED00046305105B4F480E00E94880486E492E034
:100EE0000E94410381E00E948804C4010E949C0486
:100EF0004092A6025092A7026092A8027092A902A4
:100F0000BACE8B819C810B9734F480E00E948804D8
:100F100086E592E0E5CF20E030E048EC51E4C701FF
:100F2000B6010E946E0A18160CF095C080E00E946F
:100F3000880485E692E00E944103A7019601C7015B
:100F4000B6010E94E00A882371F08FE692E00E94C9
:100F5000F0028BE792E00E94410381E00E94880446
:100F60008DE792E07BCF46015701E894B7F82FEF69
:100F70003FEF4FE75FE7C501B4010E94E00A81112E
:100F80000DC02FEF3FEF4FE75FE7C501B4010E94AF
:100F9000160918161CF483E792E0D9CF2FEF3FEF24
:100FA0004FE75FE4C701B6010E946E0A18161CF4F1
:100FB00087E792E0CCCF2FEF3FEF4FE75FECC70121
:100FC000B6010E94160987FDF3CF20E030E0A901A9
:100FD000C701B6010E94160987FF0AC041E06DE211
:100FE00089EB92E00E948603F7FAF094F7F8F09408
:100FF0002DEC3CEC4CE45DE3C701B6010E94AA086D
:101000004B015C010E948D096B017C010E94BC09AF
:101010009B01AC01C501B4010E94A9084B015C0110
:101020004AE0C701B6010E94FD0241E06EE289EB91
:1010300092E00E94860320E030E040E251E4C501E6
:10104000B4010E94730A0E948D0990E080E04AE09A
:101050000E94FD027ECF80E09AE9291693E03906CE
:101060002CF40E9488048AE892E0F8CE0E9488045A
:1010700086E992E0F3CEE9EBF2E01382128284E09B
:1010800092E09183808386E184838FEF858387E17B
:10109000868388E1878389E180878AE181878BE184
:1010A00082871386148615861686178681E00C942F
:1010B000E703052E97FB1EF400940E94700857FD6D
:1010C00007D00E94780807FC03D04EF40C947008F7
:1010D00050954095309521953F4F4F4F5F4F089564
:1010E00090958095709561957F4F8F4F9F4F089594
:1010F000A1E21A2EAA1BBB1BFD010DC0AA1FBB1F1C
:10110000EE1FFF1FA217B307E407F50720F0A21B8D
:10111000B30BE40BF50B661F771F881F991F1A94FA
:1011200069F760957095809590959B01AC01BD0124
:10113000CF010895A29FB001B39FC001A39F700D7E
:10114000811D1124911DB29F700D811D1124911DCF
:1011500008955058BB27AA270E94C1080C94340A4E
:101160000E94260A38F00E942D0A20F039F49F3F91
:1011700019F426F40C94230A0EF4E095E7FB0C9482
:101180001D0AE92F0E94450A58F3BA176207730730
:101190008407950720F079F4A6F50C94670A0EF4FD
:1011A000E0950B2EBA2FA02D0B01B90190010C0177
:1011B000CA01A0011124FF27591B99F0593F50F48F
:1011C000503E68F11A16F040A22F232F342F4427E7
:1011D000585FF3CF469537952795A795F0405395DF
:1011E000C9F77EF41F16BA0B620B730B840BBAF0AF
:1011F0009150A1F0FF0FBB1F661F771F881FC2F71A
:101200000EC0BA0F621F731F841F48F4879577952D
:101210006795B795F7959E3F08F0B0CF9395880FE7
:1012200008F09927EE0F9795879508950E94F90980
:1012300008F481E008950E942F090C94340A0E945A
:101240002D0A58F00E94260A40F029F45F3F29F049
:101250000C941D0A51110C94680A0C94230A0E94E4
:10126000450A68F39923B1F3552391F3951B550B68
:10127000BB27AA2762177307840738F09F5F5F4F69
:10128000220F331F441FAA1FA9F335D00E2E3AF0A8
:10129000E0E832D091505040E695001CCAF72BD0C0
:1012A000FE2F29D0660F771F881FBB1F2617370711
:1012B0004807AB07B0E809F0BB0B802DBF01FF2743
:1012C00093585F4F3AF09E3F510578F00C941D0AF9
:1012D0000C94680A5F3FE4F3983ED4F386957795C3
:1012E0006795B795F7959F5FC9F7880F911D9695FC
:1012F000879597F90895E1E0660F771F881FBB1F58
:10130000621773078407BA0720F0621B730B840B04
:10131000BA0BEE1F88F7E09508950E944D0A88F0F9
:101320009F5798F0B92F9927B751B0F0E1F0660FA9
:10133000771F881F991F1AF0BA95C9F714C0B130EA
:1013400091F00E94670AB1E008950C94670A672F34
:10135000782F8827B85F39F0B93FCCF38695779519
:101360006795B395D9F73EF4909580957095619502
:101370007F4F8F4F9F4F0895E89409C097FB3EF42D
:1013800090958095709561957F4F8F4F9F4F9923D2
:10139000A9F0F92F96E9BB279395F6958795779550
:1013A0006795B795F111F8CFFAF4BB0F11F460FF10
:1013B0001BC06F5F7F4F8F4F9F4F16C0882311F068
:1013C00096E911C0772321F09EE8872F762F05C07C
:1013D000662371F096E8862F70E060E02AF09A9517
:1013E000660F771F881FDAF7880F9695879597F90C
:1013F0000895990F0008550FAA0BE0E8FEEF1616A6
:101400001706E807F907C0F012161306E407F507F8
:1014100098F0621B730B840B950B39F40A2661F06C
:10142000232B242B252B21F408950A2609F4A1400F
:10143000A6958FEF811D811D089597F99F6780E81C
:1014400070E060E008959FEF80EC089500240A9416
:101450001616170618060906089500240A9412168F
:101460001306140605060895092E0394000C11F4C2
:10147000882352F0BB0F40F4BF2B11F460FF04C06F
:101480006F5F7F4F8F4F9F4F089557FD9058440FC8
:10149000551F59F05F3F71F04795880F97FB991FD3
:1014A00061F09F3F79F08795089512161306140690
:1014B000551FF2CF4695F1DF08C01616170618061D
:1014C000991FF1CF86957105610508940895E894F8
:1014D000BB2766277727CB0197F908950E94F90962
:1014E00008F48FEF08950E94860A0C94340A0E9433
:1014F000260A38F00E942D0A20F0952311F00C9452
:101500001D0A0C94230A11240C94680A0E94450AAF
:1015100070F3959FC1F3950F50E0551F629FF00146
:10152000729FBB27F00DB11D639FAA27F00DB11D5F
:10153000AA1F649F6627B00DA11D661F829F2227E8
:10154000B00DA11D621F739FB00DA11D621F839F6F
:10155000A00D611D221F749F3327A00D611D231F45
:10156000849F600D211D822F762F6A2F11249F5793
:1015700050409AF0F1F088234AF0EE0FFF1FBB1F96
:10158000661F771F881F91505040A9F79E3F510555
:1015900080F00C941D0A0C94680A5F3FE4F3983EB7
:1015A000D4F3869577956795B795F795E7959F5FFF
:1015B000C1F7FE2B880F911D9695879597F9089591
:1015C0000E94F909880B990B0895EE0FFF1F881FE1
:1015D0008BBF0790F691E02D19940E949A08B7FFEF
:0C15E0000895821B930B0895F894FFCF30
:1015EC00000000009604BF02ED02EC0259616B6929
:1015FC007420426974746921004D6F746F722044B9
:10160C00757264750055594152493A204B617069A5
:10161C00204163696B21004D6F746F722043616CC4
:10162C0069736D617A004B726974696B3A20596108
:10163C006B697420250055796172693A2059616B88
:10164C006974202500536963616B6C696B3A006E99
:10165C00616E00696E66006F76660043004B6C69C4
:10166C006D61204163696C6469004661726C6172E2
:10167C00204163696B004661726C6172204B617032
:06168C00616E64690000BC
:00000001FF
