:020000040000FA
:100000000C9462000C948A000C948A000C948A0070
:100010000C948A000C948A000C948A000C948A0038
:100020000C948A000C948A000C948A000C948A0028
:100030000C948A000C948A000C948A000C948A0018
:100040000C9451030C948A000C948A000C948A003E
:100050000C948A000C948A000C948A000C948A00F8
:100060000C948A000C948A000000000024002700F1
:100070002A0000000000250028002B0000000000DE
:1000800023002600290004040404040404040202DA
:100090000202020203030303030301020408102007
:1000A0004080010204081020010204081020000012
:1000B0000008000201000003040700000000000027
:1000C0000000F50611241FBECFEFD8E0DEBFCDBF84
:1000D00011E0A0E0B1E0ECE5F3E102C005900D9283
:1000E000A43CB107D9F721E0A4ECB1E001C01D9216
:1000F000AB3FB207E1F710E0C2E6D0E004C02197C1
:10010000FE010E94A609C136D107C9F70E949B03D0
:100110000C94AC090C940000833081F028F48130F9
:1001200099F08230A9F008958730A9F08830C9F09D
:100130008430B1F4809180008F7D03C08091800075
:100140008F7780938000089584B58F7784BD08955C
:1001500084B58F7DFBCF8091B0008F778093B00006
:1001600008958091B0008F7DF9CFCF93DF93282F32
:1001700030E0F901E255FF4F8491F901E656FF4F57
:10018000D491F901EA57FF4FC491CC23A1F081111A
:100190000E948C00EC2FF0E0EE0FFF1FE458FF4FA1
:1001A000A591B491EC91ED2381E090E009F480E019
:1001B000DF91CF91089580E090E0FACF1F93CF9325
:1001C000DF93282F30E0F901E255FF4F8491F901C8
:1001D000E656FF4FD491F901EA57FF4FC491CC2363
:1001E000A9F0162F81110E948C00EC2FF0E0EE0F89
:1001F000FF1FEE58FF4FA591B4918FB7F894EC9183
:10020000111108C0D095DE23DC938FBFDF91CF9111
:100210001F910895DE2BF8CFCF93DF9390E0FC0180
:10022000E656FF4F24918A579F4FFC018491882303
:10023000D1F090E0880F991FFC01E859FF4FA5917C
:10024000B491FC01EE58FF4FC591D491623071F426
:100250009FB7F8943C91822F809583238C93E881FB
:100260002E2B28839FBFDF91CF9108958FB7F894ED
:10027000EC912E2B2C938FBFF6CF8E508064809301
:100280007C0080917A00806480937A0080917A006B
:1002900086FDFCCF809178009091790008953FB75A
:1002A000F8948091DF019091E001A091E101B0917B
:1002B000E20126B5A89B05C02F3F19F00196A11DAC
:1002C000B11D3FBFBA2FA92F982F8827BC01CD01A0
:1002D000620F711D811D911D42E0660F771F881FFF
:1002E000991F4A95D1F70895AF92BF92CF92DF92AE
:1002F000EF92FF920F931F93CF93DF936C017B01DB
:100300008B01040F151FEB015E01AE18BF08C0176B
:10031000D10759F06991D601ED91FC910190F081DE
:10032000E02DC6010995892B79F7C501DF91CF91A1
:100330001F910F91FF90EF90DF90CF90BF90AF9003
:100340000895089590E080E00895FC010190002058
:10035000E9F73197AF01481B590BBC0183EE91E0DF
:100360000C9474018F929F92AF92BF920F931F9340
:10037000CF93DF93CDB7DEB7A1970FB6F894DEBF6A
:100380000FBECDBF19A2423008F44AE08E010F5DC6
:100390001F4F842E912CB12CA12CA50194010E94F9
:1003A0003207E62FB901CA01EA30F4F4E05DD80162
:1003B000EE938D01232B242B252B79F790E080E001
:1003C000109719F0CD010E94A501A1960FB6F894DF
:1003D000DEBF0FBECDBFDF91CF911F910F91BF90B8
:1003E000AF909F908F900895E95CE1CF0C94A501A8
:1003F000CF93DF93EC0160E08E810E94DE0061E02C
:100400008E810E94DE0060E08E810E94DE008BE81B
:1004100091E00197F1F7DF91CF910895CF92DF92AC
:10042000EF92FF920F931F93CF93DF936C017C01A8
:1004300087E0E80EF11CD0E0C0E0062F10E0B80124
:100440000C2E02C0759567950A94E2F76170F7016A
:1004500081917F010E94DE002196C430D10579F799
:10046000C601DF91CF911F910F91FF90EF90DF9028
:10047000CF900C94F801CF92DF92EF92FF920F93FE
:100480001F93CF93DF93EC01F62E642F8C810E9493
:10049000DE008D818F3F19F060E00E94DE000F2D9D
:1004A00010E08F8584FF25C06E0187E0C80ED11C47
:1004B000F12CE12CB8010E2C02C0759567950A94B9
:1004C000E2F76170F60181916F010E94DE00FFEF9B
:1004D000EF1AFF0A88E0E816F10461F7CE01DF9118
:1004E000CF911F910F91FF90EF90DF90CF900C94E0
:1004F000F801B80184E0759567958A95E1F7CE011A
:100500000E940E026F2DCE01DF91CF911F910F91AE
:10051000FF90EF90DF90CF900C940E0240E0682F98
:1005200083EE91E00C943B0281E00E948E028BE30B
:100530009FE10197F1F70895CF93DF93823029F47B
:100540009091F20198609093F2018093F6011092DD
:10055000F70180E48093F80180E18093F90180E560
:100560008093FA0161E08091E7010E940C01809183
:10057000E8018F3F19F061E00E940C0161E0809179
:10058000E9010E940C01C3EED1E09E01235E3140DF
:100590008091F20184FD0BC084E090E02196281741
:1005A000390744F461E08E810E940C01EECF88E0AF
:1005B00090E0F4CF8BE39DE00197F1F760E080914C
:1005C000E7010E94DE0060E08091E9010E94DE0008
:1005D0008091E8018F3F19F060E00E94DE00809179
:1005E000F20184FD34C063E083EE91E00E940E02CC
:1005F000CBE4D6E4CE010197F1F763E083EE91E01E
:100600000E940E022197F1F763E083EE91E00E94D1
:100610000E0283E592E00197F1F762E083EE91E04C
:100620000E940E028091F20180620E948E0284E09C
:100630008093F3018CE00E948E020E94940282E07B
:100640008093F40186E0DF91CF910C948E0280625A
:100650000E948E028BE496E40197F1F78091F201FB
:1006600080620E948E0283E592E00197F1F780910B
:10067000F20180620E948E02D5CF9091F601891717
:1006800010F08FEF890FE82FF0E0ED51FE4F8489D5
:1006900080680C948E0241E00E943B0281E090E071
:1006A00008951F920F920FB60F9211242F933F932C
:1006B0008F939F93AF93BF938091DB019091DC0167
:1006C000A091DD01B091DE013091DA0123E0230F2A
:1006D0002D3758F50196A11DB11D2093DA018093A5
:1006E000DB019093DC01A093DD01B093DE018091EA
:1006F000DF019091E001A091E101B091E20101964A
:10070000A11DB11D8093DF019093E001A093E10151
:10071000B093E201BF91AF919F918F913F912F9143
:100720000F900FBE0F901F90189526E8230F02968A
:10073000A11DB11DD2CFCF93DF9300D000D000D048
:10074000CDB7DEB7789484B5826084BD84B581600E
:1007500084BD85B5826085BD85B5816085BD80918C
:100760006E00816080936E00109281008091810004
:1007700082608093810080918100816080938100FC
:10078000809180008160809380008091B1008460BE
:100790008093B1008091B00081608093B00080911F
:1007A0007A00846080937A0080917A0082608093DE
:1007B0007A0080917A00816080937A0080917A003B
:1007C000806880937A001092C10082E00E949C02AF
:1007D00062E083E00E940C0162E082E00E940C0172
:1007E00062E084E00E940C0161E08EE10E940C0155
:1007F00061E08FE10E940C0161E080E20E940C0147
:1008000061E081E20E940C0161E082E20E940C0141
:1008100061E083E20E940C0161E08CE10E940C0126
:1008200061E089E00E940C0161E08AE00E940C0115
:1008300061E088E00E940C0161E08BE00E940C0105
:1008400061E08CE00E940C0161E08DE00E940C01EF
:1008500000E010E08FB7F8944090DB015090DC018D
:100860006090DD017090DE018FBF80E10E943D014C
:100870001C0124E630E0DC010E949F092FEF33E0E9
:1008800040E050E00E94130779018EE00E943D0194
:100890009A8389838FE00E943D019E838D8384E04B
:1008A0000E94B5006C0182E00E94B5005C0183E00B
:1008B0000E94B5004C0126E0E216F1040CF06CC079
:1008C0008091D6019091D701A091D801B091D90122
:1008D000A3019201281B390B4A0B5B0BDA01C901FA
:1008E000C297A105B10588F06091D50181E0682724
:1008F0006093D50180E20E94DE004092D6015092C2
:10090000D7016092D8017092D9014AE024163104CF
:100910000CF04EC01092D40160E089E00E94DE002D
:1009200060E08AE00E94DE0060E088E00E94DE0075
:100930008091D0019091D101A091D201B091D301C9
:10094000A3019201281B390B4A0B5B0BDA01C90189
:1009500086399105A105B105C0F00E94940280E09E
:100960000E943D038CE091E00E94F60181E00E942C
:100970003D0389E191E00E94F6014092D00150923E
:10098000D1016092D2017092D3010115110509F4D1
:1009900061CF0E9400005ECF61E03BE0E316F1040E
:1009A0000CF060E080E20E94DE001092D501ADCF35
:1009B000CD2809F445C08091D0019091D101A0913A
:1009C000D201B091D301A3019201281B390B4A0B2C
:1009D0005B0BDA01C90186399105A105B105C0F0AB
:1009E0000E94940280E00E943D0385E291E00E9413
:1009F000F60181E00E943D0387E391E00E94F60149
:100A00004092D0015092D1016092D2017092D301F4
:100A100061E081E20E94DE0060E082E20E94DE008E
:100A200061E083E20E94DE001092D40160E089E080
:100A30000E94DE0060E08AE00E94DE0060E023C1E8
:100A400060E081E20E94DE0060E082E20E94DE005F
:100A500060E083E20E94DE00892809F064C0809192
:100A6000CC019091CD01A091CE01B091CF01A30115
:100A70009201281B390B4A0B5B0BDA01C90186393D
:100A80009105A105B10508F44EC00E949402AB285F
:100A900009F4FDC01092D40161E08EE10E94DE00F5
:100AA00061E08CE10E94DE0080E00E943D0386E46C
:100AB00091E00E94F60181E00E943D0385E591E00E
:100AC0000E94F6010E944F016B017C0184EF882E89
:100AD00099249394A12CB12C0E944F016C197D098B
:100AE0008E099F09683E734081059105A8F331E0A6
:100AF000831A9108A108B10848EEC40E43E0D41E41
:100B0000E11CF11C81149104A104B10429F760E0F7
:100B10008CE10E94DE004092CC015092CD016092A7
:100B2000CE017092CF018091C8019091C901A0912E
:100B3000CA01B091CB01A3019201281B390B4A0BCA
:100B40005B0BDA01C90186399105A105B10508F4ED
:100B50005CC049815A81BA01550F880B990B0E94DC
:100B6000780820E030E040EA50E40E942D0920E0BF
:100B700030EC4FE754E40E94D50720E030E048EC29
:100B800052E40E942D096B017C014B015C0120E0C5
:100B900030E048EC51E40E94280918160CF010C10E
:100BA00061E08BE00E94DE0060E08CE00E94DE00ED
:100BB00061E08DE00E94DE000E94940280E00E94CD
:100BC0003D0384E891E00E94F601A7019601C70168
:100BD000B6010E949A09882309F473C08EE891E057
:100BE0000E94A5018AE991E00E94F60181E00E943D
:100BF0003D038CE991E00E94F6014092C8015092B9
:100C0000C9016092CA017092CB018091C401909198
:100C1000C501A091C601B091C701A3019201281B93
:100C2000390B4A0B5B0BDA01C90186399105A10525
:100C3000B105D8F00E94940280E00E943D034D81EE
:100C40005E814A3953400CF0CAC089EA91E00E94A3
:100C5000F60161E08FE10E94DE004092C4015092F3
:100C6000C5016092C6017092C7018091D4018823AA
:100C700009F4DCCE61E089E00E94DE0060E08AE0F9
:100C80000E94DE0061E088E00E94DE007ECE81E00E
:100C90008093D40160E08EE10E94DE0060E08CE190
:100CA0000E94DE0080E00E943D0382E691E00E9407
:100CB000F60181E00E943D0382E791E00E94F60187
:100CC0002ACFD701C601BF7789839A83AB83BC83C0
:100CD0002FEF3FEF4FE75FE7BC01CD010E949A097C
:100CE00081110FC02FEF3FEF4FE75FE769817A81F6
:100CF0008B819C810E94D00718161CF482E991E038
:100D00006FCF2FEF3FEF4FE75FE4C701B6010E94BF
:100D1000280918161CF486E991E062CF2FEF3FEF07
:100D20004FE75FECC701B6010E94D00787FDF3CF04
:100D300020E030E0A901C701B6010E94D00787FF7B
:100D40000CC041E06DE283EE91E00E943B0246015F
:100D50005701B7FAB094B7F8B0942DEC3CEC4CE4E2
:100D60005DE3C501B4010E9464074B015C010E9470
:100D700047086B017C010E9476089B01AC01C5010C
:100D8000B4010E9463074B015C014AE0C701B60150
:100D90000E94B20141E06EE283EE91E00E943B02CC
:100DA00020E030E040E251E4C501B4010E942D0989
:100DB0000E94470890E080E04AE00E94B20112CF12
:100DC00060E08BE00E94DE0060E08CE00E94DE00CC
:100DD00060E08DE00E94DE000E9494020ECF85EB61
:100DE00091E00E94F60160E035CFE3EEF1E013827E
:100DF000128284E091E09183808386E184838FEF87
:100E0000858387E1868388E1878389E180878AE11A
:100E100081878BE18287138614861586168617864E
:100E200081E00C949C02052E97FB1EF400940E9416
:100E30002A0757FD07D00E94320707FC03D04EF463
:100E40000C942A0750954095309521953F4F4F4F70
:100E50005F4F089590958095709561957F4F8F4F66
:100E60009F4F0895A1E21A2EAA1BBB1BFD010DC0C6
:100E7000AA1FBB1FEE1FFF1FA217B307E407F5074A
:100E800020F0A21BB30BE40BF50B661F771F881F26
:100E9000991F1A9469F760957095809590959B01BC
:100EA000AC01BD01CF010895A29FB001B39FC00165
:100EB000A39F700D811D1124911DB29F700D811D86
:100EC0001124911D08955058BB27AA270E947B0723
:100ED0000C94EE080E94E00838F00E94E70820F029
:100EE00039F49F3F19F426F40C94DD080EF4E095D4
:100EF000E7FB0C94D708E92F0E94FF0858F3BA17B4
:100F0000620773078407950720F079F4A6F50C941F
:100F100021090EF4E0950B2EBA2FA02D0B01B9017B
:100F200090010C01CA01A0011124FF27591B99F05F
:100F3000593F50F4503E68F11A16F040A22F232F6B
:100F4000342F4427585FF3CF469537952795A795BB
:100F5000F0405395C9F77EF41F16BA0B620B730B62
:100F6000840BBAF09150A1F0FF0FBB1F661F771FD3
:100F7000881FC2F70EC0BA0F621F731F841F48F488
:100F8000879577956795B795F7959E3F08F0B0CF11
:100F90009395880F08F09927EE0F979587950895F8
:100FA0000E94B30808F481E008950E94E9070C94B8
:100FB000EE080E94E70858F00E94E00840F029F48B
:100FC0005F3F29F00C94D70851110C9422090C941E
:100FD000DD080E94FF0868F39923B1F3552391F3CC
:100FE000951B550BBB27AA2762177307840738F098
:100FF0009F5F5F4F220F331F441FAA1FA9F335D0F5
:101000000E2E3AF0E0E832D091505040E695001CA8
:10101000CAF72BD0FE2F29D0660F771F881FBB1F62
:10102000261737074807AB07B0E809F0BB0B802D40
:10103000BF01FF2793585F4F3AF09E3F510578F06C
:101040000C94D7080C9422095F3FE4F3983ED4F344
:10105000869577956795B795F7959F5FC9F7880F40
:10106000911D9695879597F90895E1E0660F771F92
:10107000881FBB1F621773078407BA0720F0621B23
:10108000730B840BBA0BEE1F88F7E09508950E944E
:10109000070988F09F5798F0B92F9927B751B0F0FA
:1010A000E1F0660F771F881F991F1AF0BA95C9F7EC
:1010B00014C0B13091F00E942109B1E008950C9460
:1010C0002109672F782F8827B85F39F0B93FCCF313
:1010D000869577956795B395D9F73EF49095809569
:1010E000709561957F4F8F4F9F4F0895E89409C089
:1010F00097FB3EF490958095709561957F4F8F4F4B
:101100009F4F9923A9F0F92F96E9BB279395F69560
:10111000879577956795B795F111F8CFFAF4BB0FDE
:1011200011F460FF1BC06F5F7F4F8F4F9F4F16C042
:10113000882311F096E911C0772321F09EE8872FCC
:10114000762F05C0662371F096E8862F70E060E088
:101150002AF09A95660F771F881FDAF7880F969501
:10116000879597F90895990F0008550FAA0BE0E8A5
:10117000FEEF16161706E807F907C0F01216130659
:10118000E407F50798F0621B730B840B950B39F499
:101190000A2661F0232B242B252B21F408950A26FF
:1011A00009F4A140A6958FEF811D811D089597F93F
:1011B0009F6780E870E060E008959FEF80EC0895FD
:1011C00000240A9416161706180609060895002426
:1011D0000A9412161306140605060895092E0394A0
:1011E000000C11F4882352F0BB0F40F4BF2B11F414
:1011F00060FF04C06F5F7F4F8F4F9F4F089557FD73
:101200009058440F551F59F05F3F71F04795880F74
:1012100097FB991F61F09F3F79F08795089512160B
:1012200013061406551FF2CF4695F1DF08C01616B7
:1012300017061806991FF1CF869571056105089468
:101240000895E894BB2766277727CB0197F908957F
:101250000E94B30808F48FEF08950E9440090C948F
:10126000EE080E94E00838F00E94E70820F095237D
:1012700011F00C94D7080C94DD0811240C94220969
:101280000E94FF0870F3959FC1F3950F50E0551F22
:10129000629FF001729FBB27F00DB11D639FAA27CB
:1012A000F00DB11DAA1F649F6627B00DA11D661F1A
:1012B000829F2227B00DA11D621F739FB00DA11D3B
:1012C000621F839FA00D611D221F749F3327A00DF5
:1012D000611D231F849F600D211D822F762F6A2F91
:1012E00011249F5750409AF0F1F088234AF0EE0FF6
:1012F000FF1FBB1F661F771F881F91505040A9F723
:101300009E3F510580F00C94D7080C9422095F3F52
:10131000E4F3983ED4F3869577956795B795F7955E
:10132000E7959F5FC1F7FE2B880F911D96958795D6
:1013300097F908950E94B308880B990B08950E94AD
:101340005407B7FF0895821B930B0895EE0FFF1FFC
:101350000590F491E02D0994F894FFCF000000006F
:101360004B037401A201A10159616B6974204269A8
:1013700074746921004D6F746F72204475726475C6
:101380000055594152493A204B61706920416369C7
:101390006B21004D6F746F722043616C69736D61D6
:1013A0007A00456D6E69796574204B656D6572696B
:1013B0000054616B696C6920446567696C004D6F0E
:1013C000746F722043616C697369796F72002020B9
:1013D000202020202020202020202020202020002D
:1013E000536963616B6C696B3A006E616E00696E84
:1013F00066006F76660043004B6C696D6120416347
:10140000696C6469004661726C6172204163696B4A
:10141000004661726C6172204B6170616E6469009C
:107000000C9434380C9451380C9451380C945138F9
:107010000C9451380C9451380C9451380C945138CC
:107020000C9451380C9451380C9451380C945138BC
:107030000C9451380C9451380C9451380C945138AC
:107040000C9451380C9451380C9451380C9451389C
:107050000C9451380C9451380C9451380C9451388C
:107060000C9451380C94513811241FBECFEFD8E046
:10707000DEBFCDBF11E0A0E0B1E0E4EEF9E702C071
:1070800005900D92A230B107D9F712E0A2E0B1E06D
:1070900001C01D92AC30B107E1F70E942D390C946C
:1070A000F03C0C940038282F992787FD9095807F1D
:1070B00090709595879595958795959587959595D4
:1070C00087958A30C4F0382F395A822F8F708A30D2
:1070D0007CF0982F995A8091C00085FFFCCF3093A7
:1070E000C6008091C00085FFFCCF9093C600089534
:1070F000982F905DF0CF382F305DE7CF982F80919B
:10710000C00085FFFCCF9093C6000895EF92FF92D8
:107110000F931F93EE24FF2487018091C00087FD09
:1071200017C00894E11CF11C011D111D81E0E81637
:1071300082E1F8068AE7080780E0180770F3E0911B
:107140000301F091040109958091C00087FFE9CF08
:107150008091C6001F910F91FF90EF9008951F93AB
:107160000E948638182F8091C00085FFFCCF1093B5
:10717000C6000E948638982F8091C00085FFFCCF02
:107180009093C600113664F01755913674F490331D
:107190000CF090531295107F892F810F1F91089545
:1071A00010339CF31053913694F397551295107F3A
:1071B000892F810F1F910895282F882351F090E087
:1071C0008091C00087FFFCCF8091C6009F5F92171F
:1071D000B8F308951F93182F0E948638803211F05B
:1071E0001F9108958091C00085FFFCCF84E18093BA
:1071F000C6008091C00085FFFCCF1093C60080912F
:10720000C00085FFFCCF80E18093C6001F910895E8
:107210000E948638803209F008958091C00085FF71
:10722000FCCF84E18093C6008091C00085FFFCCF35
:1072300080E18093C6000895882359F010920902D6
:1072400090E02D9A2D989F5F9817D8F3909309029C
:1072500008951092090283E0F3CF3F924F925F921C
:107260006F927F928F929F92AF92BF92CF92DF9256
:10727000EF92FF920F931F93CF93DF9300005698E6
:107280005E9A1092C50088E08093C40088E18093E4
:10729000C10086E08093C200259A579A5F9A21E048
:1072A00040E050E0CA010197F1F72F5F2131D1F79B
:1072B00080E1809309025F9883E00E941C398091ED
:1072C000C00085FFFCCF83E58093C6008091C0009D
:1072D00085FFFCCF85E48093C6008091C00085FFC8
:1072E000FCCF84E58093C6008091C00085FFFCCF71
:1072F00080E28093C6008091C00085FFFCCF82E4CD
:107300008093C6008091C00085FFFCCF84E5809308
:10731000C6008091C00085FFFCCF80E28093C6004C
:107320008091C00085FFFCCF80E58093C6008091EE
:10733000C00085FFFCCF81E48093C6008091C0002F
:1073400085FFFCCF87E48093C6008091C00085FF55
:10735000FCCF85E48093C6008091C00085FFFCCF00
:107360008DE48093C6008091C00085FFFCCF8FE440
:107370008093C6008091C00085FFFCCF84E4809399
:10738000C6008091C00085FFFCCF85E48093C600D5
:107390008091C00085FFFCCF80E28093C600809181
:1073A000C00085FFFCCF83E38093C6008091C000BE
:1073B00085FFFCCF80E28093C6008091C00085FFEE
:1073C000FCCF82E38093C6008091C00085FFFCCF94
:1073D00080E38093C6008091C00085FFFCCF80E3EE
:1073E0008093C6008091C00085FFFCCF80E380932E
:1073F000C6008091C00085FFFCCF80E28093C6006C
:107400008091C00085FFFCCF81E38093C60080910E
:10741000C00085FFFCCF8DE08093C6008091C00046
:1074200085FFFCCF83E58093C6008091C00085FF77
:10743000FCCF85E48093C6008091C00085FFFCCF1F
:1074400084E58093C6008091C00085FFFCCF80E278
:107450008093C6008091C00085FFFCCF82E48093BA
:10746000C6008091C00085FFFCCF84E58093C600F4
:107470008091C00085FFFCCF80E28093C6008091A0
:10748000C00085FFFCCF82E58093C6008091C000DC
:1074900085FFFCCF8FE48093C6008091C00085FFFC
:1074A000FCCF8CE48093C6008091C00085FFFCCFA8
:1074B00085E48093C6008091C00085FFFCCF80E208
:1074C0008093C6008091C00085FFFCCF80E380934D
:1074D000C6008091C00085FFFCCF80E28093C6008B
:1074E0008091C00085FFFCCF86E68093C600809126
:1074F000C00085FFFCCF80E28093C6008091C00071
:1075000085FFFCCF87E38093C6008091C00085FF94
:10751000FCCF84E68093C6008091C00085FFFCCF3D
:1075200080E38093C6008091C00085FFFCCF80E39C
:107530008093C6008091C00085FFFCCF8DE08093D2
:10754000C60034E1F32E2EE1E22E95E9D92E8FE02C
:10755000C82E00E1B02EAA24A39411E4912EB6E522
:107560008B2EA2E57A2EF0E26F2EE9E45E2E73E513
:10757000472E60E5362E0E948638803359F18133DC
:10758000C9F1803409F472C0813409F486C08234B0
:1075900021F1853409F474C08035E1F08135D1F0F2
:1075A0008235C1F0853509F497C0863509F486C067
:1075B000843609F4A0C0843709F40BC1853709F477
:1075C00075C18637C1F680E00E94EA380E9486388D
:1075D0008033A9F60E940839CECF90E08091C00098
:1075E00087FFFCCF8091C6009F5F9431B9F70E945E
:1075F0000839C1CF0E948638803209F0BCCF809113
:10760000C00085FFFCCFF092C6008091C00085FFCE
:10761000FCCF9092C6008091C00085FFFCCF809285
:10762000C6008091C00085FFFCCF7092C60080919B
:10763000C00085FFFCCF6092C6008091C00085FF2E
:10764000FCCF5092C6008091C00085FFFCCF4092D5
:10765000C6008091C00085FFFCCF3092C6008091AB
:10766000C00085FFFCCFB092C60085CF0E9486384F
:10767000863808F4AFCF0E9486380E9408397BCF45
:1076800090E08091C00087FFFCCF8091C6009F5F93
:107690009530B9F70E9408396ECF0E94863880383D
:1076A00031F1813809F48DC0823809F48EC08839EF
:1076B00009F089CF83E00E94EA385DCF90E08091A5
:1076C000C00087FFFCCF8091C6009F5F9430B9F760
:1076D00080E00E94EA387ACF0E94863880930501C4
:1076E0000E948638809306010E94083944CF82E0C8
:1076F0000E94EA3840CF0E948638809308020E9498
:1077000086388093070280910B028E7F80930B0254
:107710000E948638853429F480910B028160809321
:107720000B028091070290910802892B89F000E0FA
:1077300010E00E948638F801E95FFE4F80830F5FFA
:107740001F4F80910702909108020817190788F3CC
:107750000E948638803209F00ECF80910B0280FFA4
:10776000CFC0A0910702B09108021097E9F0609194
:10777000050170910601E7E0F1E09B01AD014E0FBC
:107780005F1FF999FECF32BD21BD819180BDFA9A6C
:10779000F99A2F5F3F4FE417F50799F76A0F7B1FA0
:1077A00070930601609305018091C00085FFFCCFB6
:1077B000F092C6008091C00085FFFCCFB092C60059
:1077C000DACE81E00E94EA38D6CE8FE00E94EA3815
:1077D000D2CE0E948638809308020E948638809319
:1077E00007020E948638853409F484C080910B0218
:1077F0008E7F80930B028091050190910601880F86
:10780000991F90930601809305010E94863880326B
:1078100009F0B1CE8091C00085FFFCCFF092C60088
:10782000A0910702B09108021097B9F180910B0264
:10783000182F1170082F0270E0910501F0910601D8
:107840009F012F5F3F4FB90140E050E01123B1F499
:10785000002339F494918091C00085FFFCCF909370
:10786000C6004F5F5F4FCB010196F9014A175B07D6
:1078700080F4BC012F5F3F4F112351F3F999FECFE4
:10788000F2BDE1BDF89A90B58091C00085FFFCCFB4
:10789000E6CF70930601609305018091C00085FDDD
:1078A000E2CE8091C00085FFF8CFDDCE0E94863801
:1078B000803209F060CE8091C00085FFFCCFF0924D
:1078C000C6008091C00085FFFCCFE092C600809189
:1078D000C00085FFFCCFD092C6008091C00085FF1C
:1078E000FCCFC092C6008091C00085FFFCCFB09253
:1078F000C60041CE80910B02816080930B0285CF40
:10790000809106018823880F880B8A2180930A02C0
:107910008091050190910601880F991F90930601AF
:10792000809305018091070280FF09C080910702C2
:107930009091080201969093080280930702F894B0
:10794000F999FECF1127E0910501F0910601C7E0FA
:10795000D1E08091070290910802103091F40091DB
:10796000570001700130D9F303E000935700E89508
:107970000091570001700130D9F301E100935700E5
:10798000E895099019900091570001700130D9F3E2
:1079900001E000935700E8951395103498F01127F3
:1079A0000091570001700130D9F305E000935700B2
:1079B000E8950091570001700130D9F301E100937F
:1079C0005700E8953296029709F0C7CF103011F0B2
:1079D0000296E5CF11248091C00085FFE5CEE8CE68
:0679E000F894FFCF8000C7
:00000001FF
